:100000000C9463020C94B7200C9480020C94800230
:100010000C9480020C9480020C9480020C94800258
:100020000C9480020C9480020C94841C0C94401C50
:100030000C94811D0C9480020C9480020C9480021C
:100040000C9480020C9480020C9480020C94800228
:100050000C9480020C945D1D0C9480020C94800220
:100060000C9480020C9480020C9480020C94800208
:100070000C9480020C9480020C9480020C948002F8
:100080000C9480020C9480020C9480020C948002E8
:100090000C9480020C9480020C9480020C948002D8
:1000A0000C9480020C9480020C94800229001E00A3
:1000B0001F002700075D085D2B0014001A000800D0
:1000C00015001700025504001600074409430A00F2
:1000D000E2001D001B00066819000500000000007A
:1000E0002F0030002B612841000000002B024C0043
:1000F0002B003400045D055D065D075D085D03535C
:100100001C0018000C00120013002D000B000D4401
:100110000E000F0033001255110010003678370022
:10012000380031002C422A7101000100000000005B
:1001300034443400F200010000000000010001001E
:1001400001000100010001000100010001000100A7
:10015000010001000100E000E100E200E300010015
:100160000100010001000100010001000000000089
:100170000100010001000100000000000100010079
:100180000100010001000100010001000100010067
:1001900036024A0052004D002F0201003702500083
:1001A00051004F00300201000100260227022F00FB
:1001B000300001000100010001000100000000000A
:1001C0000100010001000100000000000100010029
:1001D0000100010001000100350235002202310258
:1001E00024022E0039001E021F02200221023702C3
:1001F0000100230225022D022E022D000000000026
:1002000001000100010001000000000001000100E8
:1002100001000100010001000100010001000100D6
:1002200001000100010001000100010001000100C6
:1002300001000100010001000100010001000100B6
:1002400001000100010001000100010000000000A8
:100250000100010001000100000000000100010098
:100260000100010001000100010001000100010086
:100270000100010001000100010001000100010076
:100280000100010001000100010001000000000068
:100290000100010001000100000000000100010058
:1002A00001000100010001000100010001000353F1
:1002B0000100240025002600160A0100010021008B
:1002C000220023000100010001001E001F00200089
:1002D000010001002D0027000100010000000000C6
:1002E000010001000100010000000000005C0100AD
:1002F00001000100010001000100010001000100F6
:100300000100010001000100AC00AE00AB000100E3
:10031000010001000100AA00A90001000000000086
:1003200001000100010001000000000001000100C7
:1003300001000100010043004400450001000100EC
:1003400001004000410042000100010001003D00A9
:100350003E003F000100010001003A003B003C006C
:100360000100010001000100010001000000000087
:100370000100010001000100000000000501090268
:10038000A10185020901A10005091901290815002B
:100390002501950875018102050109300931158192
:1003A000257F95027508810609381581257F9501FD
:1003B00075088106050C0A38021581257F9501759F
:1003C000088106C0C005010980A101850319012A21
:1003D000B700150126B700950175108100C0050C06
:1003E0000901A101850419012AA002150126A00214
:1003F000950175108100C005010906A101050719C5
:10040000E029E71500250195087501810295017520
:100410000881010507190029FF150026FF00950630
:1004200075088100050819012905950575019102D6
:10043000950175039101C009023B00020100A0FA79
:10044000090400000103010100092111010001223A
:1004500040000705810308000109040100010300B1
:100460000000092111010001227B00070582032001
:10047000000112010002000000084D443635010061
:10048000010200012C034400610063007400790044
:100490006C002D004D0061006E00750066006F005D
:1004A00072006D0020002800350078003600290019
:1004B00000000E037400730068006F007200740087
:1004C00000000403090411241FBECFEFDAE0DEBFF1
:1004D000CDBF11E0A0E0B1E0E0E5F5E402C0059099
:1004E0000D92AE36B107D9F725E0AEE6B1E001C016
:1004F0001D92A738B207E1F70E94A81D0C94902224
:100500000C940000FC01AC014A5F5F4F8FEF91E358
:100510002191822728E030E087FF09C0880F8927D2
:1005200021503109C9F7E417F50791F70895880FAD
:10053000F7CFE8EDF0E080818E7F80831092E200BB
:100540001092DA001092E100A0EEB0E08C91816090
:100550008C9380818F77808319BCA7EDB0E08C915C
:100560008E7F8C9380818F7E808310926D0508959D
:100570002091E4003091E50095E6A9012091EC007E
:10058000822F817020FF06C08091E80080FF06C0A6
:1005900080E008952091E80022FD1AC080917A053C
:1005A000882389F0853089F08091EB0085FD0FC0AC
:1005B0002091E4003091E50042175307F9F2915081
:1005C000E1F684E0089582E0089583E0089581E0F3
:1005D0000895EF92FF920F931F93CF937C018B01AD
:1005E0000E94B802C82F811117C08091E80085FDD4
:1005F0000BC08091E8008E778093E8000E94B802DB
:10060000882399F3C82F08C0F70181917F01809357
:10061000F1000150110949F78C2FCF911F910F91D3
:10062000FF90EF90089580917C0587FF13C0809123
:10063000E80082FF06C08091E8008B778093E80095
:1006400004C080917A058111F2CF089580917A05D6
:100650008823D9F38091E80080FFF8CF8091E800EB
:100660008E77ECCF982F9093E900242F762F50E0CF
:10067000891731F07091EC002091ED005091F0005D
:1006800021FD07C09F5F973071F78093E90081E0FB
:1006900008953091EB003E7F3093EB003091ED00F8
:1006A0003D7F3093ED003091EB0031603093EB00F3
:1006B0007093EC002093ED005093F0002091EE0039
:1006C00027FDE0CF80E00895B0E0A0E0EAE6F3E0A7
:1006D0000C94DD21C8EDD0E088818F7E8883E7ED22
:1006E000F0E080818160808384E082BF81E080933C
:1006F0006D0588818E7F888302EE10E0F8011082FC
:100700001092DA0081EEC82ED12CF6011082888179
:100710008F77888388818068888388818F7D8883AC
:1007200019BC10927A0510927B05109279051092EF
:10073000780590EEE92EF12CF70180818B7F808384
:1007400088818160888342E060E080E00E9432031B
:10075000F60180818E7F8083F801808181608083B3
:10076000808188608083F70180818E7F808388818B
:1007700080618883CDB7DEB7E8E00C94F921FC01F5
:10078000809182059091830586179707A0F06115E7
:10079000710529F49091E8009E779093E80090E02D
:1007A0006115710551F4911108C08091E80082FF34
:1007B00034C080E00895BC01F2CF80917A0588238F
:1007C000C1F18530C1F18091E80083FD30C0809196
:1007D000E80082FDEACF8091E80080FFE1CF8091C0
:1007E000F3002091F200382F6115710519F02830BF
:1007F000310558F091E02830310509F090E0209162
:10080000E8002E772093E800CBCF81918093F10010
:10081000615071092F5F3F4FE7CF80917A058823A0
:1008200041F0853041F08091E80083FFBECF81E048
:10083000089582E0089583E00895089580916F05FA
:1008400008959C014FB7F8948091660590916705D3
:10085000A0916805B09169054FBF821B930B089565
:100860002FB7F894609166057091670580916805CF
:10087000909169052FBF08952FB7F8948091660570
:1008800090916705A0916805B09169052FBF089503
:1008900020916305309164052817390771F0909312
:1008A000640580936305E0916105F09162053097DE
:1008B00021F00084F185E02D0995089520915F05D0
:1008C000309160052817390771F090936005809387
:1008D0005F05E0916105F0916205309721F0068097
:1008E000F781E02D099508950E943C049C019091A8
:1008F000550580915605982B21F030935205209391
:1009000051059091570580915805982B21F030930F
:10091000500520934F05E0916105F09162053097F5
:1009200049F082E0809353050480F581E02D83E552
:1009300095E009950895409155058D3E59F48091B3
:10094000560587FF0DC01092560541110BC010923D
:100950004D0508C08E3E81F48091560518169CF313
:10096000442381F08091570590915805892B09F017
:100970005AC010924C0508958F3E49F447FFF0CFBE
:1009800010925505809156058111ECCFE0CF803F44
:1009900019F41416ACF3E4CF90915705893F29F46C
:1009A0001916F4F610925705DBCF8A3F19F497FF1A
:1009B000D7CFF8CF909158058B3F29F497FFD0CF30
:1009C00010925805CDCF8C3F19F41916CCF3C8CF2F
:1009D0009FE0980F983090F4815F990B21E030E010
:1009E000B90102C0660F771F8A95E2F7CB018095A7
:1009F00090915405892380935405B2CF8D3F31F4F3
:100A000080914E058E7F80934E05AACF8E3F21F4B4
:100A100080914E058D7FF7CF8F3F09F0A1CF809158
:100A20004E058B7FF0CF089580914E0580FF0CC05E
:100A300060912D0170E075956795759567956115C5
:100A4000710549F1862F089581FF06C060912D013F
:100A500070E075956795F3CF60912D0182FD0BC015
:100A600090914C059923A1F060912C0180912D016A
:100A7000961738F0682F70E06038710500F38FE743
:100A80000895899FC001112470E00E940A22F4CFCA
:100A900061E070E0D7CF81E0089580914E0580FF3E
:100AA0000DC060912B0170E0660F771F60387105F3
:100AB00070F56115710569F1862F089581FF07C0F2
:100AC00060912B0184E0689FB0011124EFCF82FF79
:100AD00004C060912B0188E0F6CF80914D058823FA
:100AE00099F020912A0160912B018217A0F7869F2F
:100AF000C001112433E0880F991F3A95E1F7622F66
:100B000070E00E940A22D2CF68E070E0D5CF8FE774
:100B1000089581E008958D3E31F40E944D05819540
:100B20008093560508958E3E19F40E944D05F8CF26
:100B30008F3E31F40E944D058195809355050895AF
:100B4000803F19F40E944D05F8CF893F29F40E9497
:100B500014058093570508958A3F21F40E941405D7
:100B60008195F7CF8B3F31F40E94140581958093D6
:100B7000580508958C3F19F40E941405F8CF9FE0A2
:100B8000980F983070F4815F990B21E030E001C03C
:100B9000220F8A95EAF780915405822B80935405A1
:100BA00008958D3F31F480914E05816080934E050C
:100BB00008958E3F21F480914E058260F7CF8F3FDC
:100BC000B9F780914E058460F1CF80E00895F894E4
:100BD000E82FE295EF70F0E031A1282F2F7081E02F
:100BE00090E001C0880F2A95EAF7982F90959323FB
:100BF00091A392A1892B82A37894089590913005B6
:100C000092FF06C0282F28712830F9F4877F84606E
:100C100093FF06C0282F28712831F1F4877E846164
:100C20002091310520FF06C0382F38713830D9F4B3
:100C3000877F816021FF06C0282F28712831D1F4D9
:100C4000877E816194FD877E0895282F247124304A
:100C5000F9F68B7F8860DCCF282F2471243101F7CF
:100C60008B7E8861DDCF382F3171313019F78E7F5F
:100C70008860E0CF282F2171213121F78E7E886195
:100C8000E1CF972F7C30A8F4663098F470E026E02E
:100C9000929F600D711D1124FB0198E4899FE00D66
:100CA000F11D1124EE0FFF1FE455FF4F8591949124
:100CB000089580E090E00895CF93DF93EC018238AF
:100CC0009105A9F1D8F58133910509F496C048F54D
:100CD0008932910509F48AC08A9709F495C0C11533
:100CE00021E5D20708F0BCC0C11530E5D30708F0F4
:100CF00014C1C83ED10508F09CC0C03ED10560F5C6
:100D0000C83AD10508F087C0C53AD10508F0FDC042
:100D1000C130D10509F12097F9F0C430D105E0F4D4
:100D200040C08533910509F45AC0C997C1F6809136
:100D30003005837089F0C0EED0E00EC0833E91058F
:100D400099F170F4803E910501F1823E910539F6EA
:100D50008091300582FD21C0CE01DF91CF910895B1
:100D6000863E910561F1873E910571F1843E9105C2
:100D700009F0B5CF8091310581FFEECF809130052C
:100D8000C7EED0E084FD0DC0E7CF8091300580FD37
:100D900012C19091310590FFDFCFC3EED0E084FF08
:100DA000DBCFD0E0C0E0D8CF8091300582FD06C116
:100DB0009091310590FDBFCF84FFCECFF2CF8091CF
:100DC000300583FDDDCFC8CF8091300583FDF9C0AC
:100DD0009091310591FFF0CFC4EED0E0BDCF80916E
:100DE000300585FFB9CFC9E2D0E0B6CF809130059C
:100DF00085FFB2CFC5E3D0E0AFCF8091300586FF4D
:100E0000ABCFCAE2D0E0A8CF8091300586FFA4CF57
:100E1000C1E3D0E0A1CFCF3BD10518F6C85AD0E04E
:100E2000CC0FDD1FCE5CDE4F0990D881C02DD4647D
:100E300093CFC11540E2D40758F4C11581E0D8071B
:100E400008F08ACFCD3ED10508F4ABCFD06584CF72
:100E5000C11590E4D90708F4A4CFDF70D06A7CCF25
:100E6000C11525E5D20700F5C11534E5D30708F013
:100E70008AC0C11543E5D40708F071C0C11582E5E9
:100E8000D80708F467C0CE018370992721E030E0CD
:100E900002C0220F331F8A95E2F7C695C69580E2FD
:100EA000C89FE001112452C0C11599E5D907A8F4E3
:100EB000C11528E5D20708F06BC0C11536E5D30788
:100EC00008F06FCF8C2F0E94FE05C82FD0E0DC2FDA
:100ED000CC27CC27DF71D0623FCFC1154AE5D407BC
:100EE00008F45BC0CE0190568115904208F059CFAE
:100EF0008D2F8F710E94FE0590E0982F88278827FC
:100F00009F719C012C2BE901E6CFC55AD0E0C15D51
:100F1000DE4FC881D0E0D0641FCFCE01E4E09695CB
:100F20008795EA95E1F783702C2F269526952370F7
:100F300040E2249F90011124382B8C2F8370C1E054
:100F4000D0E002C0CC0FDD1F8A95E2F7C22BD32B75
:100F5000DC6802CFDC2FCC27C16FD06AFDCECE017A
:100F60008370992721E030E002C0220F331F8A9559
:100F7000E2F7C695C69590E2C99FE0011124C22B05
:100F8000D32BDA68E9CEDC2FCC27C46FD06AE4CE4D
:100F9000DC2FCC27C06FD06ADFCE8C2F8F700E94E1
:100FA000FE0534E0D695C7953A95E1F7CF709C2FB2
:100FB000EC01D069D1CEC9E3D0E0CECEC2EED0E014
:100FC000CBCEC6EED0E0C8CE8091F404882331F0B9
:100FD0001092F4041092F3041092F2040895809594
:100FE0009091F10498239093F10408951092E704EE
:100FF0001092E6041092E5040895E2E7F1E0919181
:10100000891303C0DF0111971C9291E0E837F907BB
:10101000B1F70895A2E7B1E0EFEF90E02D918217CC
:1010200051F0EF3F19F4211101C0E92F9F5F963075
:10103000A9F7EF3F09F408950E2E000CFF0BE059BD
:10104000FE4F828308952091E4049091B30456E00A
:10105000291302C080E0089530E0529FF001539FB1
:10106000F00D1124EC54FB4F7181761306C0708192
:10107000781303C07281741304C02F5F3F4F277031
:10108000E7CF81E008958091E4049091B304981330
:1010900001C008958F5F8770FACFB0E0A0E0E3E56C
:1010A000F8E00C94DC218C01C0905B05D0905C05CD
:1010B000E0905D05F0905E058091F5049091F60456
:1010C000A091F704B091F804C82AD92AEA2AFB2A89
:1010D000CFE1D0E0BC2ED701C6010C2E04C0B695DE
:1010E000A795979587950A94D2F780FD09C0219717
:1010F00088F7B12C8B2DCDB7DEB7E9E00C94F82141
:10110000B8018C2F0E9441060E945C06019779F37A
:10111000F1CFCF93DF93EC010E944D08BE010E94F6
:1011200041060E945C06DF91CF910895292F9C30E3
:1011300080F5863070F590E036E0239F800D911D9C
:101140001124682F677023E0969587952A95E1F71B
:1011500025E0289FF001299FF00D1124E058FB4F56
:1011600050E040E080E0219130E0062E02C036954C
:1011700027950A94E2F721703327042E01C0220F2D
:101180000A94EAF7822B4F5F5F4F4530510559F7BC
:10119000089580E00895292F9C30A0F5863090F5C1
:1011A00090E036E0239F800D911D1124282F277099
:1011B00041E001C0440F2A95EAF723E09695879510
:1011C0002A95E1F725E0289FF001299FF00D1124D1
:1011D000E058FB4F30E020E070E05191DF011197C3
:1011E000CB01022E02C0969587950A94E2F7817092
:1011F00081958527842385278C932F5F3F4F25304A
:10120000310559F70895FC01808191810E94890878
:1012100092959F70963091F058F4925F9F70923043
:1012200058F4803F19F030F4883E30F481E008959E
:101230009A5FF4CF843FD1F380E00895883EB0F305
:10124000813FD1F7F3CFA5E0B0E0E9E2F9E00C94FB
:10125000E22149835A8389819A81662399F0222366
:1012600089F00E944D08182F682F89819A810E9469
:10127000CB0869817A81812F0E9441062596E3E09F
:101280000C94FE210E949608182FF3CF80936A05D4
:1012900070936C0560936B0580917A05843001F53D
:1012A00082E08093E9008FEF9091E800815095FDF6
:1012B00006C095ED9A95F1F700008111F5CF809168
:1012C000E80085FF0DC050E040E063E070E08AE692
:1012D00095E00E94E9028091E8008E778093E80013
:1012E0000895BC0184E00E9446090895BC0183E092
:1012F0000E94460908959C0182E08093E9009FEFD7
:101300008091E800915085FD06C085ED8A95F1F742
:1013100000009111F5CF8091E80085FF0CC050E0EE
:1013200040E066E070E0C9010E94E9028091E800B7
:101330008E778093E8000895CF93DF93EC0181E0EE
:101340008093E9008FEF9091E800815095FD06C0F1
:1013500095ED9A95F1F700008111F5CF8091E800A5
:1013600085FF14C050E040E068E070E0CE010E94CC
:10137000E9028091E8008E778093E80088E0FE0122
:10138000A0E7B5E001900D928A95E1F7DF91CF914A
:101390000895B0E0A0E0EFECF9E00C94DB217C01D3
:1013A0005B016A0180911D0501E010E08A3010F4B4
:1013B0000AE010E0C1E0D0E0B501C701F6010995EF
:1013C000811104C021960C171D072CF4CDB7DEB790
:1013D000EAE00C94F721CC9F9001CD9F300D300DA9
:1013E000112490E080E045E34A95F1F70000019672
:1013F00082179307C1F7E0CF80910305811110C0D8
:101400008091D80080618093D8008AE18A95F1F7B5
:1014100000C08091D90080FF0AC081E0809303055D
:1014200081E090910305913009F080E0089582E019
:10143000809303050E94990210927A05F1CF0E94D1
:10144000FC09882359F0E0916105F091620530971D
:1014500029F00190F081E02D0995089580E008952C
:101460008091F1049091F004892B80937001809118
:10147000F404882319F10E943C042091F204309175
:10148000F304821B930B8838934110F00E94E40709
:10149000809170019091F404892B8093700120E079
:1014A00082E791E0FC013191CF0131112F5FF1E032
:1014B00088379F07B9F721110E94E40748E050E000
:1014C00068EE74E080E791E00E947A22892BA9F00F
:1014D00088E0E0E7F1E0A8EEB4E001900D928A9593
:1014E000E1F7E0916105F0916205309731F00280FB
:1014F000F381E02D80E791E00995089590E080E088
:101500000E945E0490E080E00E9448041092F00483
:101510000E94300A86E0E3E5F5E0DF011D928A953E
:10152000E9F710924D0510924C0510924E050E945D
:101530007404089560935B0570935C0580935D056A
:1015400090935E050E947E0A08950F931F9341E0D9
:1015500050E060E070E004C0440F551F661F771F25
:101560008A95D2F7CB01BA016095709580959095D8
:1015700000915B0510915C0520915D0530915E0541
:1015800060237123822393230E949A0A1F910F9153
:1015900008959091E704809589238093E704282F8C
:1015A000277091F4282F082E000C330B9217130686
:1015B00059F09091310592FF07C0859585958595E5
:1015C0000E94A50A0E94F60708950F931F9341E019
:1015D00050E060E070E004C0440F551F661F771FA5
:1015E0008A95D2F780915B0590915C05A0915D058D
:1015F000B0915E058A019B01082B192B2A2B3B2BEE
:10160000C901B8010E949A0A1F910F910895909103
:10161000310592FF10C098E0899F90011124622B40
:101620006093E7040E94E50A0E943C049093E6045C
:101630008093E50408950E94E50A089560E070E053
:10164000CB010E949A0A08956093F5047093F60402
:101650008093F7049093F8040E947E0A08958823EB
:1016600021F00E94EF070E94300A0895882339F084
:101670009091F104982B9093F1040E94300A089500
:10168000882309F455C0823879F40E941F0A81FF2B
:101690004FC089E30E940A080E94300A89E30E9431
:1016A000FD070E94300A0895833859F40E941F0AEA
:1016B00080FF3EC083E50E940A080E94300A83E54D
:1016C000EECF843859F40E941F0A82FF31C087E4AC
:1016D0000E940A080E94300A87E4E1CF9CEF980F2D
:1016E000913AE8F290E2980F983050F4877091E0C8
:1016F00001C0990F8A95EAF7892F0E94EF07D1CF91
:101700009BE5980F933028F490E080E00E945E04FF
:10171000089598E5980F973128F490E080E00E94B2
:10172000480408958D3E20F00E949B040E9474049A
:101730000895CF9384E090E00E943822C82F82E27F
:1017400090E00E943822982F8C2FCF91089510920C
:10175000F104E2E7F1E086E0DF011D928A95E9F706
:101760000E947E0A0895AAE2B0E0E9EBFBE00C9447
:10177000E2218CE795E02091F100FC012193CF015B
:10178000F5E084389F07B9F780917D05833009F42F
:1017900070C0B8F4813009F447C0823009F4B1C098
:1017A0008091E80083FF7EC280917C0590917D0549
:1017B0009A3008F077C2E92FF0E0EE56FD4D0C9418
:1017C0001E228A3009F48CC08B3009F46FC0893036
:1017D00039F780917C05813219F7809180059091CD
:1017E00081050297E8F68091E800877F8093E80002
:1017F0008091E80082FF38C09091F3008091F20060
:10180000029731F48091F100813011F0863021F49B
:101810008091F10080936F058091E8008B77809331
:10182000E8000E941303BCCF80917C05813A09F047
:10183000B7CF8091E800877F8093E8008091800592
:1018400090918105892B61F468E080E795E070E074
:101850000E94BF038091E8008B778093E800A0CFBF
:1018600060E090E080E0F3CF80917A058111C0CFF5
:1018700097CF80917C05813A09F092CF80918005C5
:1018800090918105892B09F08BCF8091E800877FAB
:101890008093E8008091E80080FFFCCF80912E01CA
:1018A0008093F1008091E8008E77B9CF80917C051C
:1018B000813209F075CF8091800590918105892B47
:1018C00009F06ECF8091E800877F8093E8000E9446
:1018D000130380917E0580932E010E94A70B60CF99
:1018E00080917C05813209F05BCF8091E800877F91
:1018F0008093E8000E94130380917F0580936E051A
:101900004FCF80917C05813A09F04ACF8091E80061
:10191000877F8093E8008091E80080FFFCCF809172
:101920006E05BECF803899F0823809F0BBC1809136
:1019300080058F70873008F0B5C18093E9008091F1
:10194000EB0085FB882780F91092E90006C08091A2
:10195000780590917905911182609091E800977FC8
:101960009093E8008093F1001092F1008091E800DC
:101970008E7794C1882309F482C1823009F092C124
:1019800080917E05811185C1809180058F702FEF38
:10199000280F263008F086C18093E9002091EB00E3
:1019A00020FF77C1933031F48091EB008062809307
:1019B000EB006FC19091EB0090619093EB0021E000
:1019C00030E001C0220F8A95EAF72093EA001092D6
:1019D000EA008091EB008860EACF811163C1109129
:1019E0007E051F778091E3008078812B8093E30050
:1019F0008091E800877F8093E8000E941303809124
:101A0000E80080FFFCCF8091E30080688093E300D2
:101A100082E0111183E080937A0544C180588230BE
:101A200008F040C180917E0590917F058C3D23E0B8
:101A30009207A1F583E08A838AE289834FB7F894FD
:101A4000DE01139620E03EE051E2E32FF0E05093F8
:101A50005700E49120FF03C0E295EF703F5FEF7005
:101A60008E2F90E0EA30C0F0C7968D939D932F5F44
:101A7000243159F74FBF8091E800877F8093E800B9
:101A80006AE270E0CE0101960E94BF038091E800F7
:101A90008B778093E80006C1C096E7CF4091800520
:101AA00050918105292F33272330310509F444C093
:101AB00078F52130310509F46FC08BE390E0E7E35E
:101AC000F4E02230310509F0EDC02091E800277FD5
:101AD0002093E800209182053091830582179307B7
:101AE00008F49C0140E02115310509F064C0411162
:101AF00062C08091E80082FDC9CF80917A05882379
:101B000029F2853019F28091E80083FFF2CFBECF31
:101B100021323105A9F12232310509F0C3C0411546
:101B2000510509F443C04130510509F0BBC08BE7B2
:101B300090E0ECE7F3E0C9CF992781309105C1F03F
:101B4000009759F0029709F0ADC0E4E8F4E0E491A1
:101B50008E2F90E0E4E8F4E007C0E2ECF4E0E491DA
:101B60008E2F90E0E2ECF4E0009709F49BC0ADCF3B
:101B7000E2EBF4E0E4918E2F90E0E2EBF4E0F4CFBE
:101B80004115510571F04130510509F08BC089E0D4
:101B900090E0E2E6F4E099CF82E190E0E2E7F4E061
:101BA00094CF89E090E0E9E4F4E08FCF80E490E026
:101BB000E7EFF3E08ACF80917A05882309F466CFB6
:101BC000853009F463CF8091E80083FD5FCF809179
:101BD000E80082FD8ECF8091E80080FF84CF909155
:101BE000F3008091F2002115310519F0883091053C
:101BF00050F041E0089709F040E08091E8008E77CE
:101C00008093E80070CF44914093F10031962150C9
:101C100031090196E8CF803809F044C08091E8008E
:101C2000877F8093E80080917B058093F1009ECEB2
:101C3000811138C010917E051230A0F58091E80026
:101C4000877F8093E80010937B050E941303112384
:101C500011F084E005C08091E30087FDFACF81E0B8
:101C600080937A0542E061EC81E00E94320342E217
:101C700061EC82E00E94320380917A0513C080916A
:101C80007E05813079F481E0933009F080E0809323
:101C900079051092E9008091E800877F8093E80041
:101CA0000E9413038091E80083FF0AC08091E8003E
:101CB000877F8093E8008091EB0080628093EB0047
:101CC000AA96E3E00C94FE210F931F9341E050E0AD
:101CD00060E070E08A019B0104C0000F111F221F09
:101CE000331F8A95D2F7C901B8010E94240B0E94C4
:101CF000A70B1F910F9108950E94A70B2FEF84E36C
:101D00009CE0215080409040E1F700C0000087E750
:101D100097E7909301088093000888E19AE00FB656
:101D2000F894A895809360000FBE90936000FFCF59
:101D30000E94A70B2FEF84E39CE02150804090404D
:101D4000E1F700C0000088E19AE00FB6F894A8958A
:101D5000809360000FBE90936000FFCFA4E0B0E0DE
:101D6000E4EBFEE00C94E1214091190550911A0535
:101D700060911B0570911C052FB7F8948091660542
:101D800090916705A0916805B09169052FBF841BEC
:101D9000950BA60BB70B11E084369105A105B10593
:101DA00090F10E94FC09882399F10E9430046E5F33
:101DB0007F4F8F4F9F4F69837A838B839C83809162
:101DC000150190911601825F9A4F4091140150E0E5
:101DD0004530510510F044E050E0BE016F5F7F4F89
:101DE0000E94872282E090E00E945D21182F8823C4
:101DF00051F00E9430046093190570931A05809386
:101E00001B0590931C05812F2496E4E00C94FD2182
:101E10000E94300400911E0510911F05209120059D
:101E200030912105600F711F821F931FC0CFEF9269
:101E3000FF921F93CF93DF9300D000D000D00F927A
:101E4000CDB7DEB77B0190E080E00E945D21182FC6
:101E5000882309F480C04091070150E041155105E5
:101E600011F041E050E06091080170910901625F5A
:101E70007A4FCE0107960E94872240910A05509121
:101E80000B0560910C0570910D052FB7F8948091AA
:101E9000660590916705A0916805B09169052FBF0F
:101EA000841B950BA60BB70B84369105A105B105D4
:101EB00040F48FE095E00E9482029F81891709F427
:101EC0004AC081E090E00E945D21811116C010E0BF
:101ED00086E0E4E0F5E0D70101900D928A95E1F704
:101EE000812F27960FB6F894DEBF0FBECDBFDF91CE
:101EF000CF911F91FF90EF90089540910F0150E016
:101F00004730510510F046E050E0609110017091AB
:101F10001101625F7A4FCE0101960E9487228FE005
:101F200095E00E9482029F818913D1CF0E943004E4
:101F300060930A0570930B0580930C0590930D0533
:101F400086E0FE013196A4E0B5E001900D928A95FD
:101F5000E1F711E0BDCF86E0EFE0F5E0DE0111969C
:101F600001900D928A95E1F71111EACFB1CFA2E16C
:101F7000B0E0EDEBFFE00C94D8218E010F5F1F4F16
:101F80008CE0D8011D928A95E9F782E6C82E81E09F
:101F9000D82EF12CE12CAA24A394B12C2EE6822E6B
:101FA00021E0922EF60181916F018F3F09F442C02A
:101FB000F894E82FE295EF70F0E021A18F70A50171
:101FC00002C0440F551F8A95E2F7CA01922F982B41
:101FD00091A392A18095892382A3789400C0E8E61A
:101FE000F1E0712C31E021912F3F09F46BC0A22F59
:101FF000A295AF70B0E090968C9190E02F7002C0E7
:10200000959587952A95E2F780FD5CC0832F782A05
:10201000330F8E169F0639F7F601319780818F3F77
:1020200011F00E94E70550EA5A95F1F7F801EE0D1C
:10203000FF1D70828FEFE81AF80AA6E0EA16F10495
:1020400009F0B0CF4CE050E0B80182E295E00E9488
:102050007A227C01892B41F08CE0F801A2E2B5E004
:1020600001900D928A95E1F710912F05E114F1048A
:1020700059F181E08093FB040E943C049093FA04A0
:102080008093F9048091F9049091FA040E9421044C
:10209000059778F0A2E2B5E0E12FF0E0EE5CFA4FB0
:1020A00088E295E02D9121938A179B07D9F710922A
:1020B000FB0481E090E0E114F10451F06296EDE060
:1020C0000C94F42180E0A3CF8091FB048111DACF3E
:1020D0000E94FC09F82EE0912F05882309F468C0BE
:1020E0006E01BDE0CB0ED11C86E0D6011D928A9513
:1020F000E9F70E2F10E00E5C1A4F80911D058A3013
:1021000020F547E15FE0B601C8010E94C9098823B4
:1021100059F14EEA5EE0B601C8010E94C909882360
:1021200019F110921D0580912E0590E046E050E0D7
:10213000B6018E5C9A4F0E947A2221E0209302051C
:10214000892B49F5F12C8F2DB9CF8091FC0490910A
:10215000FD040E942104843F914098F6809102057D
:10216000811112C080E0AACF80911D058F3F29F018
:102170008F5F80931D058A30B0F20E943C049093DB
:10218000FD048093FC04EACF86E0F60111928A9563
:10219000E9F710920205A0912E05B0E0AE5CBA4FAF
:1021A00086E0FE013D9601900D928A95E1F7CBCF36
:1021B000F0E0EE5CFA4F86E0AFE0B5E001900D9202
:1021C0008A95E1F78FE095E00E94820280930E05E8
:1021D000C0901505D0901605E0901705F0901805F1
:1021E0008091FE049091FF04A0910005B09101053B
:1021F000C816D906EA06FB0609F4B4CFC092FE045D
:10220000D092FF04E0920005F09201050E94FC09C3
:102210008111A8CF0E943004C61AD70AE80AF90A29
:10222000C0921E05D0921F05E0922005F092210574
:1022300099CF68EE7EEF90E080E00E94642260E03B
:1022400082E090E00E94462260E083E090E00E94FD
:1022500046221092F5041092F6041092F7041092A0
:10226000F80460E084E090E00E94462264E082E2AC
:1022700090E00E94462260E085E090E00E944622C5
:1022800060E086E090E00E9446226FEF87E090E0F9
:102290000E94462240E050E0BA0188E090E00E94AF
:1022A000582260E08DE090E00E94462240E050E03D
:1022B000BA0188E190E00E94582260E087E190E056
:1022C0000E94462240E050E0BA018CE190E00E947A
:1022D000582270E060E080E290E00E94642240E0DA
:1022E00050E0BA0188E190E00E94582240E050E0BE
:1022F000BA018FE090E00E94582240E050E0BA011D
:1023000083E190E00E94582208958B3109F460C067
:1023100040F58B3071F078F4863009F442C020F437
:10232000853059F180E00895873009F443C0883042
:10233000C9F781E00895803109F458C068F48E30FF
:1023400089F790915A05892F8B7F92FF8460809343
:102350005A0582FD47C0EDCF863159F3893149F3E3
:10236000E1CF8A32D9F058F48732A1F020F48E31CF
:10237000C8F28D5110C08932A9F60E947C0E8334B8
:1023800038F48A33F0F5853329F0883391F2CACFD7
:10239000833441F680E00E94640ECBCF0E94191175
:1023A000C8CF80915A05807F80935A0581E0809341
:1023B0005905089590915A05892F8E7F90FF81606D
:1023C00080935A0580FDB5CF817F80935A05B1CFA8
:1023D00090915A05892F8D7F91FF826080935A05D5
:1023E00081FFA7CF80915A058160EFCF90915A0568
:1023F000892F877F93FF886080935A0583FDF2CFF2
:1024000098CF8953C8CFCF93C82F8823C9F082387B
:10241000C9F40E941F0A81FD13C089E30E940A08C3
:102420000E94300A2FEF81EE94E0215080409040CE
:10243000E1F700C0000089E30E94FD070E94300A16
:10244000CF9108958338A1F40E941F0A80FDF8CF30
:1024500083E50E940A080E94300A2FEF81EE94E083
:10246000215080409040E1F700C0000083E5E4CFB8
:102470008438A1F40E941F0A82FDE2CF87E40E9403
:102480000A080E94300A2FEF81EE94E0215080402C
:102490009040E1F700C0000087E4CECF8CEF8C0FB6
:1024A000813A08F0BDC0809159058130F1F0882350
:1024B00091F08230A9F110925905E2E7F1E08191A3
:1024C000C81709F4E1C021E0E837F207C1F78C2F03
:1024D0000E940A08B3CF8091F104823271F78C2FE9
:1024E0000E9485118111ACCFE8CF8091F104823236
:1024F000B1F3C43171F038F4CB3049F0C03161F040
:1025000080E08170EFCFC93221F0C833C9F781E094
:10251000F8CF10925905F4CF82E080935905F7CF98
:10252000C93209F451C070F5C43109F44DC0A0F4AA
:10253000C73009F085CF10924A0584E180932901C4
:10254000C0932B018CE380932A0188E080932D01B6
:1025500088E280932C0174CF82EE8C0F8A3008F0D1
:102560006FCFCD51C0937F04C33009F448C0C0F58C
:10257000C13009F441C089E291E0C230C1F110924A
:102580007F045ECFC03509F443C0C0F48AE0CF3485
:1025900009F056CFE0917D04F0917E04309709F464
:1025A0004FCF2081082E000C990B820F911D8F3F79
:1025B000910591F18CF18FEF808342CFC13551F1BC
:1025C00081E0C23539F33CCF80917F04882309F440
:1025D00037CF10927F0410927E0410927D0430CF8A
:1025E000C53099F078F08CE291E0C63041F69093D6
:1025F0007E0480937D0424CF8AE495E0F8CF8BE2BB
:1026000091E0F5CF8AE291E0F2CF8DE291E0EFCF59
:1026100086EFC0CF8FEFBECF97FFCECF108210CF07
:1026200080E28C0F883068F4C77021E030E001C090
:10263000220FCA95EAF78091F104822B8093F1046E
:10264000FDCEEBE5EC0FE33040F4F0E0E15DFE4F52
:10265000808190E00E945E04F3CEE8E5EC0FE73164
:1026600050F4F0E0EE0FFF1FEE5CFE4F8081918191
:102670000E944804E5CECD3E08F4E2CE8C2F0E94A5
:102680008B050E947404DCCE8C2F0E94FD070E94F3
:10269000300A1DCF0F931F93CF93DF93C62FD42FF4
:1026A000022FFC0182818823A9F0609386050E9495
:1026B0003C049093850580938405C77081E001C038
:1026C000880FCA95EAF70E94360BDF91CF911F91D0
:1026D0000F91089580918605681335C08091840517
:1026E000909185050E942104853A910560F510E2DC
:1026F0001D0FCD17B9F080E28C0F883040F4C77001
:1027000081E001C0880FCA95EAF70E942F0B1830AC
:1027100048F481E09D2F977001C0880F9A95EAF7E1
:102720000E94360B802F0E940312802F0E94400BC4
:10273000183058F6D77081E001C0880FDA95EAF7B3
:102740000E942F0BC2CFC77081E001C0880FCA95CD
:10275000EAF7F6CFCF93C0913105C2FB992790F9E4
:10276000981791F080FBC2F9C09331056091300554
:1027700084E090E00E9446226C2F82E290E00E946A
:10278000462282E00E94C90ACF910895B0E0A0E0FD
:10279000ECECF3E10C94D4218C01FC018381948155
:1027A000892B39F040815181842F85238F3F09F097
:1027B0005DC5CDB7DEB7E1E10C94F021F80182816F
:1027C00081110AC0C530FDE5DF0709F451C008F5E5
:1027D000C4303DE5D30769F1C43F2CE5D20709F4C5
:1027E00036C108F0D2C0C93D8CE5D80709F42BC129
:1027F000CA3D9CE5D90709F436C1C83DECE5DE07C2
:1028000009F0D2C026E241EE61EEC8010E944A13EF
:102810001DC0C7308DE5D807B9F1C8309DE5D9078F
:10282000D9F660910001709101014FEF82E794E0C9
:1028300032C00E94A70B0E941E0B88E791E0909384
:1028400079048093780481E080937A048091E7048E
:10285000877009F4AECFF8018281882309F4A9CFEB
:102860008091310582FFA5CF82E00E94C90AA1CFE5
:102870000E94A70B0E941E0B82E794E090937904BC
:102880008093780482E0E0CF6091020170910301AF
:1028900041E088E791E00E948619D8CF80917804C2
:1028A00090917904F1E088379F0729F0FC01369771
:1028B0002281211105C09093030180930201F9C484
:1028C000CF01F0CF809178049091790424E0823791
:1028D000920729F0FC0136962281211105C09093C0
:1028E000010180930001E5C4CF01F0CF813031F1C7
:1028F000823009F071CF2091020130910301A09143
:102900007804B0917904F8018281811105C0F4E066
:10291000A237BF0709F460CFCD0106962817390703
:1029200009F45ACF86E0F80101900D928A95E1F7FB
:102930008091780490917904069722C0209100013B
:1029400030910101A0917804B0917904F80182815D
:10295000811105C0F1E0A837BF0709F43DCFCD01D3
:1029600006972817390709F437CF86E0F801019058
:102970000D928A95E1F780917804909179040696FA
:10298000909379048093780427CFC63FFCE5DF0756
:1029900009F465C008F45FC027E245EE66EEC73F64
:1029A0003CE5D30709F431CFF8018281882309F48B
:1029B00083C410928605C430FDE5DF0708F056C0D9
:1029C000CB3F2CE5D20730F4CE0182509C45449792
:1029D00008F056C00E94990B909331058093300502
:1029E000C1319CE5D90709F41FC108F09DC0C93069
:1029F000FCE5DF0709F402C108F06AC0C5303CE518
:102A0000D30709F4F3C008F050C0C3309CE5D907E0
:102A100009F4E2C008F0E6C0809130058160C23060
:102A2000DC4509F4DCC060913005C091310584E0DB
:102A300090E00E9446226C2F82E290E00E944622A3
:102A40000E94A70B03CF27E245EE65EEDECE26E21D
:102A500041EE60EEDACE27E245EE64EED6CE26E217
:102A600041EE62EED2CE28E241E0EFCFC2363DE544
:102A7000D30709F4AFCFC63A8DE5D80709F4AACF3A
:102A8000C6312CE5D20709F023C48091F1048A7A7B
:102A900091E009F490E090937B048111EFC089E20A
:102AA0000E940A080E94300AD1CE809130058062CF
:102AB000C7302CE5D20709F492C0809130058061BF
:102AC000C830DC4508F48BC080913005806487C035
:102AD000CD308CE5D80709F49BC098F4809130057F
:102AE0008E7FCB30ECE5DE0709F479C080913005AC
:102AF0008C60CC30DC4508F472C0809130058D7F4D
:102B00006EC0809130058F7ECF302CE5D20709F45E
:102B100066C080913005877FC031DC4508F45FC016
:102B2000809130058F7D5BC0CE3F8CE5D80709F4DE
:102B300077C050F5C531ECE5DE0709F47FC098F4A5
:102B400080913005837FC3312CE5D20709F447C05B
:102B500008F46EC00E94A70B90913005892F97FB57
:102B600087F980583CC0CC3F8CE5D80709F442C0B7
:102B700008F052C0809131058160CB3FDC4509F0FF
:102B800052CF809331054FCFC230FDE5DF0709F406
:102B900061C090F4809131058C7FC1153DE5D3076C
:102BA00081F390F180913105982F909591708E7FEF
:102BB000892B90FB81F9E5CFC2369DE5D90709F451
:102BC0004FC0C63AEDE5DE0709F451C0C330DD451C
:102BD00009F029CF60E03FC080913005826080938A
:102BE000300521CF809130058460F9CF8091300588
:102BF0008860F5CF809131058260C3CF0E94A70B1A
:102C0000809130058068EBCF809131058360B9CF2A
:102C1000809130058B7FE3CF809131058E7FB1CFDE
:102C2000809131058D7FADCF809130058F7BD7CFDF
:102C30000E94A70B809130058F77D1CF809130050E
:102C400082FB992790F921E0922790FB82F990FB73
:102C500083F9C5CF61E08EE090E00E944622E3CE8A
:102C600090913005892F8F7E94FF8061B8CF90912D
:102C70003005892F8E7F90FF8160B1CF85E310CF23
:102C800085E323C30E947C0E8091310582FB882757
:102C900080F991E089270E94AA13F8018281C081FE
:102CA000D181882309F446C0CE010E944D08F82E38
:102CB000682FCE010E94CB08BE018F2D0E944106D5
:102CC0000E945C06D82FC92FA82EF801E280D5807B
:102CD000D2943FE0D3228091E7048770C1F0CE2CDC
:102CE000EE20B1F0892F807F803421F080E28D0FBB
:102CF000883068F08091310582FF09C082E00E942F
:102D0000C90A8091E7048770CC24C3948111C12C37
:102D10003C2E32942FE03222FBE0F31508F46FC012
:102D2000E32DF0E0E456FD4D0C941E2281E0B3CF7C
:102D300080E0B1CFCE010E949608F82EBDCF2C2F97
:102D40002F70F22EC07F19F0F29490EFF922EE204E
:102D5000B9F0FF2069F080E28D0F883010F0A110EB
:102D600009C08091F104F82AF092F1040E94300A1F
:102D70008D2F43C08091F004F82AF092F004F6CF32
:102D80008D2F0E94400BFF20D1F1D05ED83010F083
:102D9000A11004C08F2D0E94EF0706C0F09480910F
:102DA000F004F822F092F0040E94300A28C03C2F70
:102DB0003F70F32EC07FC03219F0F29480EFF822FA
:102DC000AA2059F081E0A81609F493C0EE2009F476
:102DD0009CC0DD2009F469C0CBCF8091310582FD14
:102DE0003CC0EE20A1F1FF2039F08091F104F82AD7
:102DF000F092F1040E94300A80E00E940312E32D59
:102E0000E850FF0B349710F40E941F0ACC20A9F061
:102E10008091E70480FD11C0F801128285958595A7
:102E200085950E94E50AC8010E94C6138091E704B7
:102E30008595859585950E94A50A20E0F801408139
:102E400051816281738184810E942309B2CC80E028
:102E50000E94400BFF2099F29DCFEE2051F1D1103E
:102E600004C08091F4048F2921C091E0D91211C0CF
:102E700082FFC5CF8091F404F82AF81609F4BFCF79
:102E80000E943C049093F3048093F204F092F404C3
:102E9000B6CFE2E0DE12E5CF0E94E40790917C0419
:102EA0008F2D892B891380937C048F2D0E94360BE4
:102EB000A6CFD11003C00E94E40712C0F1E0DF12D8
:102EC00013C08091F1048F2109F499CF0E94E40787
:102ED00090917C048F2D80958923891380937C04A5
:102EE0008F2D0E942F0B8BCF22E0D21609F487CFB3
:102EF000E2CFEE2029F035E03D1508F480CFD5CFA4
:102F000084E08D1508F47BCFEBCFDD2049F399E306
:102F1000A91209C0EFEFF7EE23E0E150F0402040A6
:102F2000E1F700C000008D2F0E94400B68CF8C2F6E
:102F300086958695837069F0813009F060CF8D2F7A
:102F40009C2F9370E11002C090E080E00E94480442
:102F500056CF8D2F9C2F9370E11002C090E080E03F
:102F60000E945E044CCF8D2FEE2029F00E948B052D
:102F70000E94740444CF0E949B04FACF8C2F83706C
:102F800009F065C0E1103BCF8D2F82958695877043
:102F9000880F880F6D2F6F70462E512C712C612C6D
:102FA000082E04C0440C551C661C771C0A94D2F7EA
:102FB00040E050E0BA01D4FF0FC04FE050E060E0C5
:102FC00070E004C0440F551F661F771F8A95D2F723
:102FD0004095509560957095C695C695C370C23062
:102FE00019F1D8F48090F5049090F604A090F704BD
:102FF000B090F804C13069F0442955296629772931
:10300000CB01BA01682179218A219B210E94240BDE
:10301000F6CE482859286A287B28CB01BA016429B2
:10302000752986299729F2CF4429552966297729B8
:103030004090F5045090F6046090F7047090F80406
:10304000CB01BA016425752586259725DFCF8695A6
:10305000EE2011F08C2F8170882309F4D0CE8D2FB3
:10306000829586958770880F880F6D2F6F70462E1A
:10307000512C712C612C082E04C0440C551C661C6C
:10308000771C0A94D2F740E050E0BA01D4FF0FC099
:103090004FE050E060E070E004C0440F551F661F31
:1030A000771F8A95D2F74095509560957095C69593
:1030B000C695C370C23019F1D8F480905B0590902A
:1030C0005C05A0905D05B0905E05C13069F04429B3
:1030D000552966297729CB01BA01682179218A21EE
:1030E0009B210E949A0A8BCE482859286A287B285F
:1030F000CB01BA016429752986299729F2CF442981
:1031000055296629772940905B0550905C056090B1
:103110005D0570905E05CB01BA0164257525862595
:103120009725DFCFCF70EE2029F08C2F0E94E50A83
:103130008D2FBCCE8D2F0E942F0B8C2F0E94A50AA5
:103140005ECE8D2F32EFA31609F43FC03A1570F012
:1031500090EFA916D1F0E1EFAE1691F0EE2009F450
:1031600075C0D11005CE8C2F8F7133C0F3EFAF1621
:1031700099F124EFA212F2CF8091310582FD3EC079
:103180008C2F8F71EE20D1F224C0EE20C9F034E0F4
:103190003D1508F434CECF7161E070E080E090E03E
:1031A00004C0660F771F881F991FCA95D2F74090F9
:1031B0005B0550905C0560905D0570905E05ADCF3D
:1031C00085E08D1508F41BCEE6CF8C2F8F71E110B2
:1031D000B5CF0E94E50A13CEEE2069F0CF7161E011
:1031E00070E080E090E004C0660F771F881F991F91
:1031F000CA95D2F776CF0E941E0B01CEEE20C9F001
:103200008091E7048770843041F40E94F6078C2F88
:103210008F710E94A50AC12CF2CD91E09D15D8F3C3
:10322000CF718C2F0E94E50A63E08C2F0E94070B60
:10323000F2CFE1E0ED1530F40E94F60764E08C2F48
:103240008F71F4CF81E00E94C90AE5CFDD2059F0EB
:10325000893309F068CEFFEF27EE33E0F1502040CC
:103260003040E1F75ECE8C2F8F7168CF21E0628114
:10327000738184810E942309EC0180917A04882360
:1032800009F49CCA9E0124503D452330310508F0C5
:103290002DCB91E0C630DD4509F490E0F8012281A4
:1032A000291709F4D3CA813009F4F8CA823009F425
:1032B00009CB10927A04CACAC631DC4509F0EDCCBC
:1032C00080917B048111DCCC89E20E94FD07EACB6E
:1032D000CB352DE5D20709F429CD68F4C1158CE56D
:1032E000D80709F4CFCCCF3DDC4509F0D6CC0E94FD
:1032F00019110E94980ECD35EDE5DE0709F4C4CC16
:1033000008F416CDC83ADD45A1F3C7CC8F929F9241
:10331000AF92BF92EF92FF920F931F93CF93DF93E1
:10332000EC017B01042F80905B0590905C05A090E0
:103330005D05B0905E050E94A70B0E941E0B86E003
:10334000080280011124CE15DF0589F40E94A70B25
:10335000C501B4010E949A0ADF91CF911F910F918C
:10336000FF90EF90BF90AF909F908F900895CE0107
:103370000E94C613C00FD11FE6CF1F93CF93DF93D8
:103380008091B204807F09F049C08091AF04882306
:1033900009F444C08091E404D091B3046091AD0479
:1033A0007091AE04A091B004B091B104C62FC723B0
:1033B00016E0D81799F190E0109711F0CF3F19F46B
:1033C00001968770F6CF189F9001199F300D112438
:1033D000F901EC54FB4F41814713F2CF4081461372
:1033E000EFCF42814111ECCF438154814A1B5B0BEB
:1033F000453A510528F78091B2048F70806180931F
:10340000B204F901E754FB4F80818F7080618083A3
:103410008DEA94E00E94C6130E944308DF91CF9189
:103420001F910895A1E1B0E0E8E1FAE10C94D921FF
:103430008C0185E0F801DE011D9601900D928A95C0
:10344000E1F7D8019C9011968C9011971296EC9010
:1034500012971396CD90DC9020E04091AD045091EE
:10346000AE046091AF047091B0048091B1040E94E9
:1034700023098DEAA82E84E0B82E4091B004509123
:10348000B1044115510509F431C19091AD04209169
:10349000AE04892F82238F3F09F428C1F090AF0436
:1034A000F601E41BF50BFF2009F4F2C08091B20491
:1034B000382F307FE53AF10508F0BCC0D8011196ED
:1034C0004C911197311177C0FE2C421315C02C91ED
:1034D000291312C0E11010C08F7080618093B20474
:1034E000C5010E94C6138091B204F80185838F2D17
:1034F0006196ECE00C94F521C114D10429F0892DDA
:1035000088218F3F09F010C180E080FF14C04E2D4C
:10351000682D892D0E942308882369F08DEA94E0A4
:103520000E94C61386E0EDEAF4E0DF011D928A9561
:10353000E9F7F12CDCCFC114D10429F0892D8821C1
:103540008F3F09F0EEC080E0B82FB170CB2E80FF26
:1035500029C04E2D682D892D0E942308D82E811157
:1035600021C09D868E868D859E850E948908292F83
:1035700022952F70223050F0243078F49F7051F053
:10358000F8019581907F31F4FD2CB1CF9F7011F03F
:103590008823D1F3805E8830B8F3C8010E94C61337
:1035A000DC2CF2CFEE2009F4A2CF8091B20481602E
:1035B0008093B204BECF421313C02C91291310C0C4
:1035C000E1100EC015968C93C8010E94C61386E0C8
:1035D000F801ADEAB4E001900D928A95E1F787CF4A
:1035E000C8010E940309882309F1EE20F9F08091B7
:1035F000B204803270F02091AD043091AE0438876F
:103600002F831986DB86CA868C87CE0107960E9497
:10361000C61386E0F801ADEAB4E001900D928A95F8
:10362000E1F70E94BD19FF24F39461CFC8010E9405
:10363000C613F9CF332309F471CFF8013181321366
:103640000FC0208129130CC0E1100AC08583C80176
:103650000E94C61386E0D5011D928A95E9F747CFEF
:10366000C8010E940309882309F3EE20F9F2809132
:10367000B204803270F22091AD043091AE043A83EE
:1036800029831B82DD82CC828E83CE010196BFCF3F
:10369000E53AF105F8F6FE2CEE2041F2F8018181C1
:1036A000821316C08081891313C08091B20480FDFB
:1036B0008ECF982F907F09F48ACF8583903F09F4AD
:1036C00083CF982F907F905F8F70892B85837CCFDD
:1036D000C8010E94030981119CCF8091B2048160CE
:1036E0008093B204C8010E94C61301CFEE2009F4F2
:1036F0009DCFC8010E940309F82E882309F496CFB4
:1037000086E0F801ADEAB4E001900D928A95E1F708
:103710008091AD049091AE040E9489080E94BD1969
:10372000E6CE81E08E2510CF81E08E25EECEA7E19A
:10373000B0E0EDE9FBE10C94E2214B8B5C8B6D8BEF
:103740007E8B8F8B61111092F0041A8A198A85E0A2
:10375000FE017396DE011D9601900D928A95E1F7A8
:103760008091310582FF1CC00E943C042091E50439
:103770003091E604821B930B8838934120F08091AE
:10378000E70482FF79C00E943C042091F20430914A
:10379000F304821B930B8838934110F00E94E407D6
:1037A00086E0FE013D96DE01179601900D928A9506
:1037B000E1F7CE0107960E94121A882359F016E00D
:1037C0008091E4049091B304891343C06796E3E0C9
:1037D0000C94FE2186E0FE013796DE0111960190E1
:1037E0000D928A95E1F78A859B85892B41F38F811C
:1037F000988589238F3F19F32091B30430E0C901E4
:103800000196877099274091E4044817190671F4CE
:103810000E94A70B1092B3041092E40486E0EDEA34
:10382000F4E0DF011D928A95E9F7C9CF96E0929FF7
:10383000D001939FB00D1124AC54BB4FFE013196C3
:1038400001900D929A95E1F78093B3040E9443088A
:10385000B6CF819FC00111248C549B4F0E94121A35
:10386000882309F4B3CF8091E40490E00196877037
:1038700099278093E404A4CF82E00E94C90A83CFF1
:103880001F920F920FB60F9211242F933F934F93D5
:103890005F936F937F938F939F93AF93BF93CF93D8
:1038A000DF93EF93FF93D091E900DF708091EC00FC
:1038B000C82FC17080FDC0E81092E9008091F0002F
:1038C000877F8093F00078940E94B30B1092E900F8
:1038D0008091F00088608093F000CD2BCF70C09372
:1038E000E900FF91EF91DF91CF91BF91AF919F914F
:1038F0008F917F916F915F914F913F912F910F9099
:103900000FBE0F901F9018951F920F920FB60F9237
:1039100011242F933F934F935F936F937F938F93D4
:103920009F93AF93BF93EF93FF938091E10082FF4A
:1039300009C08091E20082FF05C08091E1008B7F89
:103940008093E1008091DA0080FF24C08091D8004C
:1039500080FF20C08091DA008E7F8093DA00809112
:10396000D90080FF9DC080E189BD82E189BD09B495
:1039700000FEFDCF81E080937A0580916D05811175
:1039800009C00E9499020E9464038091E200846051
:103990008093E2008091E10080FF17C08091E200F7
:1039A00080FF13C08091E2008E7F8093E2008091BF
:1039B000E20080618093E2008091D8008062809371
:1039C000D80019BC85E080937A058091E10084FFDE
:1039D0002BC08091E20084FF27C080E189BD82E195
:1039E00089BD89B5982F917080FFFBCF8091D80059
:1039F0008F7D8093D8008091E1008F7E8093E100DD
:103A00008091E2008F7E8093E2008091E2008160ED
:103A10008093E20080917B05882309F447C084E00D
:103A200080937A0580917A058091E10083FF27C019
:103A30008091E20083FF23C08091E100877F809323
:103A4000E10082E080937A0510927B058091E1008D
:103A50008E7F8093E1008091E2008E7F8093E20070
:103A60008091E20080618093E20042E060E080E0CB
:103A70000E9432038091F00088608093F000FF91F3
:103A8000EF91BF91AF919F918F917F916F915F91D6
:103A90004F913F912F910F900FBE0F901F9018954F
:103AA00019BC10927A0510926D0574CF8091E300D5
:103AB00087FD93E090937A05B5CF78941F921FB657
:103AC0001F9211248F939F93AF93BF9380916605AC
:103AD00090916705A0916805B09169050196A11DB7
:103AE000B11D8093660590936705A0936805B09318
:103AF0006905BF91AF919F918F911F901FBE1F903D
:103B000018951F921FB61F9211248F939F93AF9306
:103B1000BF9380916505811113C0809166059091D6
:103B20006705A0916805B09169054196A11DB11D79
:103B30008093660590936705A0936805B093690527
:103B4000BF91AF919F918F911F901FBE1F901895AD
:103B5000CDB7DEB760970FB6F894DEBF0FBECDBF0E
:103B600085B7806885BF85B7806885BF84B7877F44
:103B700084BF0FB6F894A895809160008861809307
:103B80006000109260000FBE80E890E00FB6F894DD
:103B900080936100909361000FBE85EE95E0909355
:103BA0006F0180936E010E9499020E9464038091CC
:103BB000E20084608093E200789480917A05882303
:103BC000A1F01091E9001F709091EC00892F817095
:103BD00090FD80E8182B1092E9008091E80083FDA9
:103BE0000E94B30B1F701093E90082E084BD93E044
:103BF00095BD9AEF97BD80936E0010921E051092AE
:103C00001F0510922005109221050E94FC09809347
:103C10001C010E94FC0981110E94712080911C01ED
:103C200080911C0196E0811190E090932F0586E031
:103C3000891B80932E0502E611E058E6E52E51E03F
:103C4000F52ED8018D918D018F3F11F00E94E7056F
:103C5000E016F106B1F708E611E04EE6E42E41E089
:103C6000F42EF80181918F018F3F11F00E94E7053A
:103C7000E016F106B1F78CE0E2E3F5E0DF01282F72
:103C80001D922A95E9F7E2E2F5E0DF011D928A959F
:103C9000E9F790E080E00E944022883E9E4F11F0BC
:103CA0000E94191182E090E00E94382280935A0508
:103CB0000E94990B909331058093300583E090E04A
:103CC0000E943822682F70E090E080E00E94240B70
:103CD0000E94FC09811102C00E9474208DE191E0D4
:103CE000909362058093610588E1E82EF12C90E4C1
:103CF000D92E20E1C22E32E1B32E80917A05853093
:103D000049F480917A05853009F4D2C00E94A70B4E
:103D10000E941F0A0E94B70F81110E943004A2E383
:103D2000B5E0EEE3F5E010E000E0702E9D908191AB
:103D3000891509F4F8C08925812CAA24A3949A2D09
:103D4000982309F4EBC00E94FC09882399F08F8224
:103D500078869A2081E009F480E089870E943C04FB
:103D60008160782F9B878A874F81588569858B85ED
:103D70000E94971BF801E25CFA4F8081A826A0827E
:103D80000E94FC0986E0E3E5F5E0DE011196019072
:103D90000D928A95E1F710925505109256051092F2
:103DA0005705109258050B811C81802F812B91F0B3
:103DB00080915105909152050E942104AC0190918F
:103DC0004D05992309F4C6C0809129018417150671
:103DD00008F4CEC01D810E81812F802B09F448C0CC
:103DE00080914F05909150050E9421049C01909173
:103DF0004C05992309F419C121353105C8F19F3FBC
:103E000019F09F5F90934C05112359F00E941405FF
:103E10009FEF11160CF491E0899F802D112480935F
:103E20005705002359F00E9414059FEF10160CF45B
:103E300091E0899F802D112480935805309157057A
:103E40003323B1F020915805222391F045EB340340
:103E5000C0011124992309F4CAC09093570545EB7A
:103E6000240390011124332309F4C5C0309358056D
:103E700046E050E0BE016F5F7F4F83E595E00E9412
:103E80007A22892B11F00E94740486E0FE0131969B
:103E9000A3E5B5E001900D928A95E1F70E941F0A13
:103EA00090914B05891709F428CF80934B0525CFB6
:103EB00080917A05843009F1109265050FB6F89467
:103EC000A895E09260000FBED092600083B7817F1A
:103ED000846083BF83B7816083BF7894889583B7FC
:103EE0008E7F83BF0FB6F894A8958091600088619B
:103EF00080936000109260000FBE80917905882346
:103F000009F4FFCE0E94B70FE2E3F5E08191811141
:103F100076C025E0EE33F207C9F7F3CE8394AA0CFE
:103F200046E084120CCF0F5F1F4F0C30110509F0D3
:103F3000FCCE8FEF8C878D871E860E943C048160AB
:103F4000782F988B8F874C855D856E8588890E9438
:103F5000971B16CF20914A058AE0289F90011124D3
:103F60002417350708F036CF9F5F90934D0502C0A8
:103F70009F3FD1F7002359F00E944D059FEF101687
:103F80000CF491E0899F802D112480935505112315
:103F900059F00E944D059FEF11160CF491E0899F96
:103FA000802D11248093560530915505332309F453
:103FB00011CF20915605222309F40CCF45EB340391
:103FC000C0011124992359F09093550545EB240322
:103FD00090011124332339F030935605FBCE81E054
:103FE00080935505F3CF81E080935605F3CE81E0B1
:103FF0008093570534CF81E08093580539CFC9BCF1
:10400000B9BC09B400FEFDCF8091D8008F7D8093AC
:10401000D8008091E00082608093E0008091E00011
:1040200081FDFCCF0E94A70B6CCE232B09F0E9CEBB
:104030001FCF8EE1489B02C08150E1F7489BFECF25
:104040000895589880E28A95F1F7589A0895FC01EE
:104050003BE03A95F1F798E020E080E031E040E184
:104060004A95F1F7880F489B02C08160232742E000
:104070004A95F1F7000040E14A95F1F7915079F740
:1040800090E19A95F1F799B132E03A95F1F7000095
:1040900040E14A95F1F7917092272081920F908329
:1040A0000895A1E0B0E0E7E5F0E20C94DF21198289
:1040B0008C017C01E60EF11C0E151F0541F481E018
:1040C0009981911180E02196E6E00C94FB210E94F9
:1040D0001920CE0101960E942720F80181938F01BB
:1040E000EBCF509A589A08955098589AE89AE9E672
:1040F000F0E080818C7F808308956150770B91E0A0
:1041000001C0990F6A95EAF720E031E0911108C0EB
:10411000222391F0589A80E28A95F1F758980895F1
:10412000492F482339F0589A232740E24A95F1F75E
:104130009695ECCF5898F9CF5898EDCFFF920F9302
:104140001F93CF93DF93EC018C01060F111DC01755
:10415000D10729F4CDB7DEB7E5E00C94FC21F99046
:104160000E94212068E08F2D0E947D20F0CF1F92B9
:104170000F920FB60F9211240F931F932F933F931B
:104180004F935F936F937F938F939F93AF93BF935F
:10419000EF93FF93CF93DF930F92CDB7DEB71982E2
:1041A0000E941920CE0101960E942720082F069513
:1041B00006950695282F22952570902F9570290F2A
:1041C000922F937026952695920F98279770898144
:1041D000982B09F05CC0043008F059C080E18A9542
:1041E000F1F7589A509A82E08A95F1F700C05898F2
:1041F00088E0089F80011124D801AC5FBE4F16965D
:10420000ED91FC9117973097A9F060916001709142
:10421000610114962D913C911597260F371F119629
:104220008D919C911297680F791F13964C9113975B
:104230008C910995F801EC5FFE4F6381662351F084
:10424000209160013091610184819581820F931FDB
:104250000E949E200E94212080E18A95F1F75898C3
:104260005098589A80E18A95F1F7F801EC5FFE4F7B
:104270006081662351F0209160013091610181815C
:104280009281820F931F0E9451200E9419200F904B
:10429000DF91CF91FF91EF91BF91AF919F918F915E
:1042A0007F916F915F914F913F912F911F910F914E
:1042B0000F900FBE0F901F9018950F931F93CF93E1
:1042C000DF93EC0104970CF04CC0F894509A589886
:1042D00085E08A95F1F700009C2F969595708C2FBC
:1042E0008570980F892F83709695969523E0CC0F53
:1042F000DD1F2A95E1F7980F8E01092B0E942120DE
:1043000000C068E0802F0E947D2080E18A95F1F74F
:104310005098589A489B1EC087E090E048991CC06E
:10432000FE01EC5FFE4F63816623F9F0209160018E
:104330003091610184819581820F931F0E945120E9
:10434000811113C0509A589A7894DF91CF911F91A0
:104350000F91089500C0DECF019729F4509A589A22
:10436000789480E0F2CF00C0D9CF0E94192080E27B
:104370008A95F1F75898509A80E18A95F1F7CC5FC9
:10438000DE4F6881662351F0209160013091610118
:1043900089819A81820F931F0E949E200E94212072
:1043A000789481E0D2CF2F923F924F925F926F929A
:1043B0007F928F929F92AF92BF92CF92DF92EF92B5
:1043C000FF920F931F93CF93DF93CDB7DEB7CA1B36
:1043D000DB0B0FB6F894DEBF0FBECDBF09942A8861
:1043E000398848885F846E847D848C849B84AA8409
:1043F000B984C884DF80EE80FD800C811B81AA8196
:10440000B981CE0FD11D0FB6F894DEBF0FBECDBF60
:10441000ED01089597FB072E16F4009407D077FD61
:1044200009D00E94242207FC05D03EF49095819586
:104430009F4F0895709561957F4F0895EE0FFF1F70
:104440000590F491E02D0994AA1BBB1B51E107C014
:10445000AA1FBB1FA617B70710F0A61BB70B881F14
:10446000991F5A95A9F780959095BC01CD010895A3
:10447000F999FECF92BD81BDF89A992780B508952C
:10448000A8E1B0E042E050E00C946C22262FF999AC
:10449000FECF92BD81BDF89A019700B4021639F0A3
:1044A0001FBA20BD0FB6F894FA9AF99A0FBE089574
:1044B0000396272F0E9447220E944622252F0E9402
:1044C0004722242F0C9447220196272F0E9447222F
:1044D0000C944622DC01CB01FC01F999FECF06C009
:1044E000F2BDE1BDF89A319600B40D9241505040B2
:1044F000B8F70895FB01DC0104C08D91019080198B
:1045000021F441505040C8F7881B990B0895FB01D6
:10451000DC0102C001900D9241505040D8F708953F
:10452000F894FFCF920CBA0C520EBA0C520EED0C4E
:104530000E0D520E0B0E180E9F169F16D716D7167D
:104540009717B317FF16FF16BE179218A118A118D8
:104550007204780100000001000000000000000665
:10456000010000000407000000000000011E049C80
:10457000097B09760971091D04143C07280801818B
:104580008283E200E900EA00B500B600B700CD0082
:104590008301CC008A0192019401210223022402AA
:1045A0002502260227022A02B300B4006F00700021
:0E45B0000E05F6F731333236946697C6343571
:00000001FF
